{
  "contractName": "SupplyChain",
  "abi": [
    {
      "inputs": [],
      "payable": false,
      "stateMutability": "nonpayable",
      "type": "constructor"
    },
    {
      "anonymous": false,
      "inputs": [
        {
          "indexed": false,
          "internalType": "string",
          "name": "message",
          "type": "string"
        }
      ],
      "name": "ParcelDelivered",
      "type": "event"
    },
    {
      "anonymous": false,
      "inputs": [
        {
          "indexed": false,
          "internalType": "string",
          "name": "message",
          "type": "string"
        }
      ],
      "name": "ParcelNotDelivered",
      "type": "event"
    },
    {
      "anonymous": false,
      "inputs": [
        {
          "indexed": false,
          "internalType": "uint256",
          "name": "id",
          "type": "uint256"
        },
        {
          "indexed": false,
          "internalType": "string",
          "name": "buyerName",
          "type": "string"
        }
      ],
      "name": "buyerReceived",
      "type": "event"
    },
    {
      "anonymous": false,
      "inputs": [
        {
          "indexed": false,
          "internalType": "uint256",
          "name": "productId",
          "type": "uint256"
        },
        {
          "indexed": false,
          "internalType": "string",
          "name": "location",
          "type": "string"
        },
        {
          "indexed": false,
          "internalType": "string",
          "name": "timearrived",
          "type": "string"
        }
      ],
      "name": "courierInfo",
      "type": "event"
    },
    {
      "anonymous": false,
      "inputs": [
        {
          "indexed": false,
          "internalType": "uint256",
          "name": "id",
          "type": "uint256"
        },
        {
          "indexed": false,
          "internalType": "string",
          "name": "name",
          "type": "string"
        },
        {
          "indexed": false,
          "internalType": "string",
          "name": "capacity",
          "type": "string"
        },
        {
          "indexed": false,
          "internalType": "string",
          "name": "color",
          "type": "string"
        },
        {
          "indexed": false,
          "internalType": "uint256",
          "name": "quantity",
          "type": "uint256"
        },
        {
          "indexed": false,
          "internalType": "uint256",
          "name": "PriceOfProduct",
          "type": "uint256"
        }
      ],
      "name": "orderCreated",
      "type": "event"
    },
    {
      "anonymous": false,
      "inputs": [
        {
          "indexed": false,
          "internalType": "uint256",
          "name": "id",
          "type": "uint256"
        },
        {
          "indexed": false,
          "internalType": "string",
          "name": "name",
          "type": "string"
        },
        {
          "indexed": false,
          "internalType": "string",
          "name": "capacity",
          "type": "string"
        },
        {
          "indexed": false,
          "internalType": "string",
          "name": "color",
          "type": "string"
        },
        {
          "indexed": false,
          "internalType": "uint256",
          "name": "quantity",
          "type": "uint256"
        },
        {
          "indexed": false,
          "internalType": "uint256",
          "name": "PriceOfProduct",
          "type": "uint256"
        }
      ],
      "name": "orderPaid",
      "type": "event"
    },
    {
      "anonymous": false,
      "inputs": [
        {
          "indexed": false,
          "internalType": "uint256",
          "name": "id",
          "type": "uint256"
        },
        {
          "indexed": false,
          "internalType": "string",
          "name": "location",
          "type": "string"
        },
        {
          "indexed": false,
          "internalType": "string",
          "name": "shopName",
          "type": "string"
        }
      ],
      "name": "sellerInfo",
      "type": "event"
    },
    {
      "constant": true,
      "inputs": [],
      "name": "nextProductId",
      "outputs": [
        {
          "internalType": "uint256",
          "name": "",
          "type": "uint256"
        }
      ],
      "payable": false,
      "stateMutability": "view",
      "type": "function"
    },
    {
      "constant": true,
      "inputs": [
        {
          "internalType": "uint256",
          "name": "",
          "type": "uint256"
        }
      ],
      "name": "products",
      "outputs": [
        {
          "internalType": "uint256",
          "name": "id",
          "type": "uint256"
        },
        {
          "internalType": "string",
          "name": "name",
          "type": "string"
        },
        {
          "internalType": "string",
          "name": "capacity",
          "type": "string"
        },
        {
          "internalType": "string",
          "name": "color",
          "type": "string"
        },
        {
          "internalType": "uint256",
          "name": "quantity",
          "type": "uint256"
        },
        {
          "internalType": "uint256",
          "name": "price",
          "type": "uint256"
        },
        {
          "internalType": "bool",
          "name": "state",
          "type": "bool"
        }
      ],
      "payable": false,
      "stateMutability": "view",
      "type": "function"
    },
    {
      "constant": true,
      "inputs": [
        {
          "internalType": "uint256",
          "name": "",
          "type": "uint256"
        }
      ],
      "name": "trackings",
      "outputs": [
        {
          "internalType": "uint256",
          "name": "id",
          "type": "uint256"
        },
        {
          "internalType": "string",
          "name": "location",
          "type": "string"
        },
        {
          "internalType": "string",
          "name": "shopName",
          "type": "string"
        },
        {
          "internalType": "string",
          "name": "buyerName",
          "type": "string"
        },
        {
          "internalType": "string",
          "name": "timeArrived",
          "type": "string"
        }
      ],
      "payable": false,
      "stateMutability": "view",
      "type": "function"
    },
    {
      "constant": false,
      "inputs": [
        {
          "internalType": "string",
          "name": "Name",
          "type": "string"
        },
        {
          "internalType": "string",
          "name": "Capacity",
          "type": "string"
        },
        {
          "internalType": "string",
          "name": "Color",
          "type": "string"
        },
        {
          "internalType": "uint256",
          "name": "Quantity",
          "type": "uint256"
        },
        {
          "internalType": "uint256",
          "name": "PriceOfProduct",
          "type": "uint256"
        }
      ],
      "name": "orderProduct",
      "outputs": [],
      "payable": false,
      "stateMutability": "nonpayable",
      "type": "function"
    },
    {
      "constant": false,
      "inputs": [
        {
          "internalType": "uint256",
          "name": "productId",
          "type": "uint256"
        },
        {
          "internalType": "uint256",
          "name": "priceToPay",
          "type": "uint256"
        }
      ],
      "name": "paymentByBuyer",
      "outputs": [],
      "payable": false,
      "stateMutability": "nonpayable",
      "type": "function"
    },
    {
      "constant": false,
      "inputs": [
        {
          "internalType": "uint256",
          "name": "productId",
          "type": "uint256"
        },
        {
          "internalType": "string",
          "name": "location",
          "type": "string"
        },
        {
          "internalType": "string",
          "name": "shopName",
          "type": "string"
        },
        {
          "internalType": "string",
          "name": "buyerName",
          "type": "string"
        }
      ],
      "name": "seller",
      "outputs": [],
      "payable": false,
      "stateMutability": "nonpayable",
      "type": "function"
    },
    {
      "constant": false,
      "inputs": [
        {
          "internalType": "uint256",
          "name": "productId",
          "type": "uint256"
        },
        {
          "internalType": "string",
          "name": "location",
          "type": "string"
        },
        {
          "internalType": "string",
          "name": "timearrived",
          "type": "string"
        }
      ],
      "name": "courier",
      "outputs": [],
      "payable": false,
      "stateMutability": "nonpayable",
      "type": "function"
    },
    {
      "constant": false,
      "inputs": [
        {
          "internalType": "uint256",
          "name": "productId",
          "type": "uint256"
        },
        {
          "internalType": "string",
          "name": "location",
          "type": "string"
        },
        {
          "internalType": "string",
          "name": "recipientName",
          "type": "string"
        },
        {
          "internalType": "string",
          "name": "timeArrived",
          "type": "string"
        }
      ],
      "name": "receiver",
      "outputs": [],
      "payable": false,
      "stateMutability": "nonpayable",
      "type": "function"
    }
  ],
  "bytecode": "0x6000805460ff19168155610100604052608081815260a082905260c082905260e0919091526200003490600190600462000049565b503480156200004257600080fd5b5062000106565b600183019183908215620000d05791602002820160005b838211156200009f57835183826101000a81548160ff021916908315150217905550926020019260010160208160000104928301926001030262000060565b8015620000ce5782816101000a81549060ff02191690556001016020816000010492830192600103026200009f565b505b50620000de929150620000e2565b5090565b6200010391905b80821115620000de57805460ff19168155600101620000e9565b90565b61235c80620001166000396000f3fe608060405234801561001057600080fd5b50600436106100885760003560e01c80637acc0b201161005b5780637acc0b20146105e157806396f8049c14610762578063c2f7a7be14610785578063d7b9853a1461093857610088565b8063176c0cee1461008d5780632f6c22d6146102445780634de91a63146103f95780634e37d7a014610413575b600080fd5b610242600480360360808110156100a357600080fd5b81359190810190604081016020820135600160201b8111156100c457600080fd5b8201836020820111156100d657600080fd5b803590602001918460018302840111600160201b831117156100f757600080fd5b91908080601f0160208091040260200160405190810160405280939291908181526020018383808284376000920191909152509295949360208101935035915050600160201b81111561014957600080fd5b82018360208201111561015b57600080fd5b803590602001918460018302840111600160201b8311171561017c57600080fd5b91908080601f0160208091040260200160405190810160405280939291908181526020018383808284376000920191909152509295949360208101935035915050600160201b8111156101ce57600080fd5b8201836020820111156101e057600080fd5b803590602001918460018302840111600160201b8311171561020157600080fd5b91908080601f016020809104026020016040519081016040528093929190818152602001838380828437600092019190915250929550610a68945050505050565b005b6102426004803603608081101561025a57600080fd5b81359190810190604081016020820135600160201b81111561027b57600080fd5b82018360208201111561028d57600080fd5b803590602001918460018302840111600160201b831117156102ae57600080fd5b91908080601f0160208091040260200160405190810160405280939291908181526020018383808284376000920191909152509295949360208101935035915050600160201b81111561030057600080fd5b82018360208201111561031257600080fd5b803590602001918460018302840111600160201b8311171561033357600080fd5b91908080601f0160208091040260200160405190810160405280939291908181526020018383808284376000920191909152509295949360208101935035915050600160201b81111561038557600080fd5b82018360208201111561039757600080fd5b803590602001918460018302840111600160201b831117156103b857600080fd5b91908080601f016020809104026020016040519081016040528093929190818152602001838380828437600092019190915250929550610d1f945050505050565b61040161112e565b60408051918252519081900360200190f35b6104306004803603602081101561042957600080fd5b5035611134565b6040518086815260200180602001806020018060200180602001858103855289818151815260200191508051906020019080838360005b8381101561047f578181015183820152602001610467565b50505050905090810190601f1680156104ac5780820380516001836020036101000a031916815260200191505b5085810384528851815288516020918201918a019080838360005b838110156104df5781810151838201526020016104c7565b50505050905090810190601f16801561050c5780820380516001836020036101000a031916815260200191505b50858103835287518152875160209182019189019080838360005b8381101561053f578181015183820152602001610527565b50505050905090810190601f16801561056c5780820380516001836020036101000a031916815260200191505b50858103825286518152865160209182019188019080838360005b8381101561059f578181015183820152602001610587565b50505050905090810190601f1680156105cc5780820380516001836020036101000a031916815260200191505b50995050505050505050505060405180910390f35b6105fe600480360360208110156105f757600080fd5b503561138d565b604051808881526020018060200180602001806020018781526020018681526020018515151515815260200184810384528a818151815260200191508051906020019080838360005b8381101561065f578181015183820152602001610647565b50505050905090810190601f16801561068c5780820380516001836020036101000a031916815260200191505b5084810383528951815289516020918201918b019080838360005b838110156106bf5781810151838201526020016106a7565b50505050905090810190601f1680156106ec5780820380516001836020036101000a031916815260200191505b5084810382528851815288516020918201918a019080838360005b8381101561071f578181015183820152602001610707565b50505050905090810190601f16801561074c5780820380516001836020036101000a031916815260200191505b509a505050505050505050505060405180910390f35b6102426004803603604081101561077857600080fd5b508035906020013561156b565b610242600480360360a081101561079b57600080fd5b810190602081018135600160201b8111156107b557600080fd5b8201836020820111156107c757600080fd5b803590602001918460018302840111600160201b831117156107e857600080fd5b91908080601f0160208091040260200160405190810160405280939291908181526020018383808284376000920191909152509295949360208101935035915050600160201b81111561083a57600080fd5b82018360208201111561084c57600080fd5b803590602001918460018302840111600160201b8311171561086d57600080fd5b91908080601f0160208091040260200160405190810160405280939291908181526020018383808284376000920191909152509295949360208101935035915050600160201b8111156108bf57600080fd5b8201836020820111156108d157600080fd5b803590602001918460018302840111600160201b831117156108f257600080fd5b91908080601f0160208091040260200160405190810160405280939291908181526020018383808284376000920191909152509295505082359350505060200135611a64565b6102426004803603606081101561094e57600080fd5b81359190810190604081016020820135600160201b81111561096f57600080fd5b82018360208201111561098157600080fd5b803590602001918460018302840111600160201b831117156109a257600080fd5b91908080601f0160208091040260200160405190810160405280939291908181526020018383808284376000920191909152509295949360208101935035915050600160201b8111156109f457600080fd5b820183602082011115610a0657600080fd5b803590602001918460018302840111600160201b83111715610a2757600080fd5b91908080601f016020809104026020016040519081016040528093929190818152602001838380828437600092019190915250929550611ced945050505050565b60045460009081526003602052604090206005015460ff161515600114610ac05760405162461bcd60e51b815260040180806020018281038252603b815260200180612228603b913960400191505060405180910390fd5b60606040518060c0016040528060045481526020018581526020018481526020018381526020018281526020016001600480602002604051908101604052809291908260048015610b46576020028201916000905b825461010083900a900460ff161515815260206001928301818104948501949093039092029101808411610b155790505b5050509190925250506004546000908152600360209081526040909120825181558282015180519192610b81926001850192909101906120e0565b5060408201518051610b9d9160028401916020909101906120e0565b5060608201518051610bb99160038401916020909101906120e0565b5060808201518051610bd59160048401916020909101906120e0565b5060a0820151610beb906005830190600461215e565b509050507fa6acca54f3519242699264513c9f68abd7f275a03976c6104a9e3165714a7abf858585604051808481526020018060200180602001838103835285818151815260200191508051906020019080838360005b83811015610c5a578181015183820152602001610c42565b50505050905090810190601f168015610c875780820380516001836020036101000a031916815260200191505b50838103825284518152845160209182019186019080838360005b83811015610cba578181015183820152602001610ca2565b50505050905090810190601f168015610ce75780820380516001836020036101000a031916815260200191505b509550505050505060405180910390a150506004546000908152600360205260409020600501805461ff001916610100179055505050565b60045460009081526003602052604090206005015462010000900460ff161515600114610d7d5760405162461bcd60e51b815260040180806020018281038252602981526020018061228c6029913960400191505060405180910390fd5b60006003600086815260200190815260200160002090506000816003016040516020018082805460018160011615610100020316600290048015610df85780601f10610dd6576101008083540402835291820191610df8565b820191906000526020600020905b815481529060010190602001808311610de4575b50509150506040516020818303038152906040528051906020012090506000846040516020018082805190602001908083835b60208310610e4a5780518252601f199092019160209182019101610e2b565b6001836020036101000a038019825116818451168082178552505050505050905001915050604051602081830303815290604052805190602001209050808214610ec55760405162461bcd60e51b81526004018080602001828103825260268152602001806122d86026913960400191505060405180910390fd5b600283810180546040805160206001841615610100026000190190931694909404601f81018390048302850183019091528084526060939291830182828015610f4f5780601f10610f2457610100808354040283529160200191610f4f565b820191906000526020600020905b815481529060010190602001808311610f3257829003601f168201915b505050505090506040518060c0016040528060045481526020018881526020018281526020018781526020018681526020016001600480602002604051908101604052809291908260048015610fda576020028201916000905b825461010083900a900460ff161515815260206001928301818104948501949093039092029101808411610fa95790505b5050509190925250506004546000908152600360209081526040909120825181558282015180519192611015926001850192909101906120e0565b50604082015180516110319160028401916020909101906120e0565b506060820151805161104d9160038401916020909101906120e0565b50608082015180516110699160048401916020909101906120e0565b5060a082015161107f906005830190600461215e565b509050507f945c0161dcabebe32b632033363254e2ce7a01a19784a93edd9792c5c5c7526788876040518083815260200180602001828103825283818151815260200191508051906020019080838360005b838110156110e95781810151838201526020016110d1565b50505050905090810190601f1680156111165780820380516001836020036101000a031916815260200191505b50935050505060405180910390a15050505050505050565b60045481565b6003602090815260009182526040918290208054600180830180548651600293821615610100026000190190911692909204601f8101869004860283018601909652858252919492939092908301828280156111d15780601f106111a6576101008083540402835291602001916111d1565b820191906000526020600020905b8154815290600101906020018083116111b457829003601f168201915b50505060028085018054604080516020601f60001961010060018716150201909416959095049283018590048502810185019091528181529596959450909250908301828280156112635780601f1061123857610100808354040283529160200191611263565b820191906000526020600020905b81548152906001019060200180831161124657829003601f168201915b5050505060038301805460408051602060026001851615610100026000190190941693909304601f81018490048402820184019092528181529495949350908301828280156112f35780601f106112c8576101008083540402835291602001916112f3565b820191906000526020600020905b8154815290600101906020018083116112d657829003601f168201915b5050505060048301805460408051602060026001851615610100026000190190941693909304601f81018490048402820184019092528181529495949350908301828280156113835780601f1061135857610100808354040283529160200191611383565b820191906000526020600020905b81548152906001019060200180831161136657829003601f168201915b5050505050905085565b60026020818152600092835260409283902080546001808301805487519281161561010002600019011695909504601f81018590048502820185019096528581529094919390929091908301828280156114285780601f106113fd57610100808354040283529160200191611428565b820191906000526020600020905b81548152906001019060200180831161140b57829003601f168201915b50505060028085018054604080516020601f60001961010060018716150201909416959095049283018590048502810185019091528181529596959450909250908301828280156114ba5780601f1061148f576101008083540402835291602001916114ba565b820191906000526020600020905b81548152906001019060200180831161149d57829003601f168201915b5050505060038301805460408051602060026001851615610100026000190190941693909304601f810184900484028201840190925281815294959493509083018282801561154a5780601f1061151f5761010080835404028352916020019161154a565b820191906000526020600020905b81548152906001019060200180831161152d57829003601f168201915b50505050600483015460058401546006909401549293909290915060ff1687565b60045460009081526002602052604090206006015460ff1615156001146115c35760405162461bcd60e51b81526004018080602001828103825260298152602001806122636029913960400191505060405180910390fd5b60045460009081526002602052604090206005015481146116155760405162461bcd60e51b815260040180806020018281038252602a8152602001806122fe602a913960400191505060405180910390fd5b6000828152600260208181526040928390206001808201805486519281161561010002600019011694909404601f8101849004840282018401909552848152909360609391928301828280156116ac5780601f10611681576101008083540402835291602001916116ac565b820191906000526020600020905b81548152906001019060200180831161168f57829003601f168201915b50505060028086018054604080516020601f60001961010060018716150201909416959095049283018590048502810185019091528181529596506060959450909250908301828280156117415780601f1061171657610100808354040283529160200191611741565b820191906000526020600020905b81548152906001019060200180831161172457829003601f168201915b5050505060038501805460408051602060026001851615610100026000190190941693909304601f81018490048402820184019092528181529495506060949350908301828280156117d45780601f106117a9576101008083540402835291602001916117d4565b820191906000526020600020905b8154815290600101906020018083116117b757829003601f168201915b505050506004868101546040805160e081018252925480845260208085018a81528584018a9052606086018890526080860185905260a086018d90526000805460ff16151560c0880152928352600282529290912084518155915180519697509295939450909261184b92600185019201906120e0565b50604082015180516118679160028401916020909101906120e0565b50606082015180516118839160038401916020909101906120e0565b506080820151816004015560a0820151816005015560c08201518160060160006101000a81548160ff0219169083151502179055509050507fc910b201135a0ffe163e959ced4046aaac2a5be17a31cfadf2c04acb24fff725600454858585858b60405180878152602001806020018060200180602001868152602001858152602001848103845289818151815260200191508051906020019080838360005b8381101561193b578181015183820152602001611923565b50505050905090810190601f1680156119685780820380516001836020036101000a031916815260200191505b5084810383528851815288516020918201918a019080838360005b8381101561199b578181015183820152602001611983565b50505050905090810190601f1680156119c85780820380516001836020036101000a031916815260200191505b50848103825287518152875160209182019189019080838360005b838110156119fb5781810151838201526020016119e3565b50505050905090810190601f168015611a285780820380516001836020036101000a031916815260200191505b50995050505050505050505060405180910390a150506004546000908152600360205260409020600501805460ff191660011790555050505050565b600480546001908101918290556040805160e08101825283815260208082018a81528284018a9052606083018990526080830188905260a083018790526000805460ff16151560c08501529586526002825292909420815181559151805191949293611ad693908501929101906120e0565b5060408201518051611af29160028401916020909101906120e0565b5060608201518051611b0e9160038401916020909101906120e0565b506080820151816004015560a0820151816005015560c08201518160060160006101000a81548160ff0219169083151502179055509050507f1da0cb8fa69c4976d6c5239d9f1a6ec1cdafbe67363928f6f077b9e4d08b9a03600454868686868660405180878152602001806020018060200180602001868152602001858152602001848103845289818151815260200191508051906020019080838360005b83811015611bc6578181015183820152602001611bae565b50505050905090810190601f168015611bf35780820380516001836020036101000a031916815260200191505b5084810383528851815288516020918201918a019080838360005b83811015611c26578181015183820152602001611c0e565b50505050905090810190601f168015611c535780820380516001836020036101000a031916815260200191505b50848103825287518152875160209182019189019080838360005b83811015611c86578181015183820152602001611c6e565b50505050905090810190601f168015611cb35780820380516001836020036101000a031916815260200191505b50995050505050505050505060405180910390a150506004546000908152600260205260409020600601805460ff19166001179055505050565b60045460009081526003602052604090206005015460ff610100909104161515600114611d4b5760405162461bcd60e51b81526004018080602001828103825260238152602001806122b56023913960400191505060405180910390fd5b6000838152600360208181526040928390209182018054845160026001831615610100026000190190921691909104601f8101849004840282018401909552848152929360609392830182828015611de45780601f10611db957610100808354040283529160200191611de4565b820191906000526020600020905b815481529060010190602001808311611dc757829003601f168201915b50505060028086018054604080516020601f6000196101006001871615020190941695909504928301859004850281018501909152818152959650606095945090925090830182828015611e795780601f10611e4e57610100808354040283529160200191611e79565b820191906000526020600020905b815481529060010190602001808311611e5c57829003601f168201915b505050505090506040518060c0016040528060045481526020018681526020018281526020018381526020018581526020016001600480602002604051908101604052809291908260048015611f04576020028201916000905b825461010083900a900460ff161515815260206001928301818104948501949093039092029101808411611ed35790505b5050509190925250506004546000908152600360209081526040909120825181558282015180519192611f3f926001850192909101906120e0565b5060408201518051611f5b9160028401916020909101906120e0565b5060608201518051611f779160038401916020909101906120e0565b5060808201518051611f939160048401916020909101906120e0565b5060a0820151611fa9906005830190600461215e565b509050507f29cd595662d3d4cb9b6ebe68d5937f7c2b993661a412aec0a6e024d591e2e346868686604051808481526020018060200180602001838103835285818151815260200191508051906020019080838360005b83811015612018578181015183820152602001612000565b50505050905090810190601f1680156120455780820380516001836020036101000a031916815260200191505b50838103825284518152845160209182019186019080838360005b83811015612078578181015183820152602001612060565b50505050905090810190601f1680156120a55780820380516001836020036101000a031916815260200191505b509550505050505060405180910390a150506004546000908152600360205260409020600501805462ff000019166201000017905550505050565b828054600181600116156101000203166002900490600052602060002090601f016020900481019282601f1061212157805160ff191683800117855561214e565b8280016001018555821561214e579182015b8281111561214e578251825591602001919060010190612133565b5061215a9291506121ec565b5090565b6001830191839082156121e05791602002820160005b838211156121b157835183826101000a81548160ff0219169083151502179055509260200192600101602081600001049283019260010302612174565b80156121de5782816101000a81549060ff02191690556001016020816000010492830192600103026121b1565b505b5061215a929150612209565b61220691905b8082111561215a57600081556001016121f2565b90565b61220691905b8082111561215a57805460ff1916815560010161220f56fe53656c6c65722063616e6e6f742072656365697665206f72646572206265666f7265207061796d656e7420697320646f6e6520627920627579657243616e6e6f742070617920616e797468696e67206265666f7265206372656174696e67206f726465725468652070617263656c207374696c6c206e6f742064656c69766572656420627920636f757269657243616e6e6f742073656e6420746f20636f7572696572206966206e6f2073656c6c65724f6e6c79207468652042757965722063616e2072656365697665207468652070726f647563744e65656420746f207061792074686520657861637420616d616f756e74206f6620746865207072696365a265627a7a723158206541a7a511b1ff74bb561e9369b43f6b0068c6d9e15af9dda51a1d0a117303bc64736f6c63430005100032",
  "source": "pragma solidity >=0.5.16;\n\ncontract SupplyChain {\n    //address public owner;\n    // Define the struct for a product\n    struct Product {\n        uint id;\n        string name;\n        string capacity;\n        string color;\n        uint quantity;\n        uint price;\n        bool state;\n    }\n    //Define the struct for tracking\n    struct Tracking {\n        uint id;\n        string location;\n        string shopName;\n        string buyerName;\n        string timeArrived;\n        bool[4] state ;\n    }\n    bool productTemp_state = false;\n    bool[4] temp_state = [false, false, false, false];\n\n    // Define a mapping from product ID to product struct\n    mapping(uint => Product) public products;\n    mapping(uint => Tracking) public trackings;\n\n    // Keep track of the next product ID to use\n    uint public nextProductId;\n\n    // Event to log when a product is created\n    event orderCreated(uint id, string name, string capacity, string color, uint quantity, uint PriceOfProduct);\n    event orderPaid(uint id, string name, string capacity, string color, uint quantity, uint PriceOfProduct);\n    event sellerInfo(uint id, string location, string shopName);\n    event buyerReceived(uint id, string buyerName);\n    event courierInfo(uint productId, string location, string timearrived);\n\n    event ParcelDelivered(string message);\n    event ParcelNotDelivered(string message);\n\n    // Constructor to set the contract\n    constructor() public {\n        //owner = msg.sender;\n}\n    // Function to create a new product order\n    function orderProduct(string memory Name, string memory Capacity, string memory Color, uint Quantity, uint PriceOfProduct) public {\n        // Increment the next product ID\n        nextProductId++;\n\n        // Create a new product struct and store it in the mapping\n        products[nextProductId] = Product(nextProductId, Name, Capacity, Color, Quantity, PriceOfProduct, productTemp_state);\n\n        // Emit an event to log the creation of the product\n        emit orderCreated(nextProductId, Name, Capacity, Color, Quantity, PriceOfProduct);\n\n       products[nextProductId].state = true;\n    }\n\n    //Payment\n    function paymentByBuyer(uint productId, uint priceToPay) public {\n        //If the order is not created yet, return false\n        require (products[nextProductId].state == true,\"Cannot pay anything before creating order\");\n\n        //If the amount of payment is not equal, return false\n        require(products[nextProductId].price == priceToPay,\"Need to pay the exact amaount of the price\");\n\n        // retrieve from struct product\n        Product storage product = products[productId];\n\n         //store the variable to be retrieved\n        string memory Name = product.name;\n        string memory Capacity = product.capacity;\n        string memory Color = product.color;\n        uint Quantity = product.quantity;\n\n        products[nextProductId] = Product(nextProductId, Name, Capacity, Color, Quantity, priceToPay, productTemp_state);\n\n        emit orderPaid(nextProductId, Name, Capacity, Color, Quantity, priceToPay);\n\n        trackings[nextProductId].state[0] = true;\n    }\n\n    //Seller\n    function seller(uint productId, string memory location, string memory shopName, string memory buyerName) public {\n        //If the product is not paid yet, return false\n        require(trackings[nextProductId].state[0] == true,\"Seller cannot receive order before payment is done by buyer\");\n\n        string memory timeArrived;\n\n        trackings[nextProductId] = Tracking(nextProductId, location, shopName, buyerName, timeArrived, temp_state);\n        emit sellerInfo(productId, location, shopName);\n        \n        trackings[nextProductId].state[1] = true;\n    }\n\n    //Courier\n    function courier(uint productId, string memory location, string memory timearrived) public {\n        require(trackings[nextProductId].state[1] == true,\"Cannot send to courier if no seller\");\n      \n        // Retrieve the trackings struct from the mapping\n        Tracking storage tracking = trackings[productId];\n\n        //store the buyerName and shopName to be retrieved\n        string memory buyerName = tracking.buyerName;\n        string memory shopName = tracking.shopName;\n\n        trackings[nextProductId] = Tracking(nextProductId, location,  shopName, buyerName, timearrived, temp_state);\n        emit courierInfo(productId, location, timearrived);\n\n       trackings[nextProductId].state[2] = true;\n    }\n\n    // Receiver\n    function receiver(uint productId, string memory location, string memory recipientName, string memory timeArrived) public {\n        require(trackings[nextProductId].state[2] == true,\"The parcel still not delivered by courier\");\n\n        // Retrieve the trackings struct from the mapping\n        Tracking storage tracking = trackings[productId];\n\n        // Encode the string variables as bytes and hash them\n        bytes32 productBuyerHash = keccak256(abi.encodePacked(tracking.buyerName));\n        bytes32 buyerHash = keccak256(abi.encodePacked(recipientName));\n\n        // Check that the hashed buyer names are the same\n        require(productBuyerHash == buyerHash, \"Only the Buyer can receive the product\");\n\n        string memory shopName = tracking.shopName;\n        //string memory recipientName = tracking.buyerName;\n\n        // Check last location\n        trackings[nextProductId] = Tracking(nextProductId, location, shopName, recipientName, timeArrived, temp_state);\n\n        // Emit an event to log for the receiver\n        emit buyerReceived(productId, recipientName);\n    }\n }",
  "sourcePath": "C:\\Users\\garet\\TruffleProject\\contracts\\_supplychain.sol",
  "compiler": {
    "name": "solc",
    "version": "0.5.16+commit.9c3226ce.Emscripten.clang"
  },
  "schemaVersion": "3.4.11",
  "updatedAt": "2023-01-25T02:14:22.740Z",
  "networkType": "ethereum",
  "devdoc": {
    "methods": {}
  },
  "userdoc": {
    "methods": {}
  }
}